:020000040800F2
:10000000F804002001010008871D0008F31B000808
:10001000851D0008D1090008192200080000000011
:10002000000000000000000000000000AB1D000800
:10003000D309000800000000A91D0008AD1D00083C
:100040001B0100081B0100081B0100081B01000820
:100050001B0100081B0100081B0100081B01000810
:100060001B0100081B0100081B0100081B01000800
:100070001B0100081B0100081B0100081B010008F0
:100080001B0100081B0100081B0100081B010008E0
:100090001B0100081B0100081B0100081B010008D0
:1000A0001B0100081B0100081B0100081B010008C0
:1000B0001B0100081B0100081B0100081B010008B0
:1000C0001B0100081B0100081B0100081B010008A0
:1000D0001B0100081B0100081B0100081B01000890
:1000E0001B0100081B0100081B010008DFF80CD0F1
:1000F00000F0ACFB00480047DD310008F8040020A8
:100100000648804706480047FEE7FEE7FEE7FEE7B1
:10011000FEE7FEE7FEE7FEE7FEE7FEE7351E000826
:10012000ED000008202A04DB203A21FA02F0002129
:10013000704721FA02F3D040C2F1200291400843F7
:100140001946704740EA01039B0703D009E008C93C
:10015000121F08C0042AFAD203E011F8013B00F88C
:10016000013B521EF9D27047D2B201E000F8012BD8
:10017000491EFBD270470022F6E710B513460A4627
:1001800004461946FFF7F0FF204610BD30B480EA60
:10019000010202F0004530F0004221F0004013D08F
:1001A00090B1C30DD40DC2F31601C0F31600E41ACA
:1001B00041F4000140F400027D34914201D3641CFB
:1001C00000E04900002C02DA30BC002070474FF4F8
:1001D00000000023914201D3891A034340084FEAEB
:1001E0004101F7D151B1914202D14FF0004105E0F8
:1001F00002D24FF0010101E06FF0010103EBC450A6
:10020000284430BC00F008BA2DE9FE4F804681EA50
:100210000300C00F0C46009021F0004123F0004580
:10022000B8EB0200A94105D24046214690461C4643
:100230000B46024623F00040104347D0270DC7F37A
:100240000A00C3F30A510290401A019040286BDA69
:10025000C3F3130040F4801B0098924620B10023A2
:10026000D2EB030A63EB0B0B01985946C0F1400235
:10027000504600F0B0F906460D4650465946019AE0
:1002800000F0B8F910EB08006141002487EA115230
:1002900084EAE7731A4340D0009A62B3019A012AB4
:1002A0004FEA075215DC001B61EB02014FF00042E0
:1002B00002EA0752CDE90042001C41F580113246A6
:1002C0002B4600F0EDF903B0BDE8F08F4046214623
:1002D000F9E7001B61EB0201001C41F580130018D7
:1002E0005B412018A2F5001747EB030140EAD570E7
:1002F000B6196D4111E06D084FEA360645EAC07542
:100300004FEA0752001B61EB0201001C41F580110E
:1003100049084FEA30000019514132462B4603B0DC
:10032000BDE8F04F00F0AFB9009801224000002373
:10033000D0EB020263EBE073009821464FEAE074D1
:10034000B8EB000061EB0401E9E783F000435BE7F1
:1003500081F0004158E72DE9FE4F81EA030404F0E3
:10036000004421F0004100944FF0000B23F00043C3
:1003700050EA01045ED052EA03045BD0C3F30A548E
:10038000C1F30A552C44A4F2F3340194A0FB0254A7
:10039000C1F3130141F48011C3F3130343F4801339
:1003A00001FB024400FB034E840A970A44EA81548D
:1003B00047EA8357A4FB076802958D0A05FB07856A
:1003C0004FEA932C04FB0C542705029D4FEA065874
:1003D00047EA1637B5EB08056EEB070C870E920E51
:1003E00047EA811742EA8312A7FB0201B6EB0B0131
:1003F00064EB00042B0D43EA0C335E1844EB1C50F5
:10040000DA465146E7FB0201C5F313044FEA0B330A
:1004100043EA14534FEA0432019C43EA0603A4F171
:100420000C040294009CCDE900B400F039F903B04B
:10043000BDE8F08F00200146F9E770B521F00043D8
:1004400003430CD0C1F30A550024D5EB040564EB3B
:100450000403D617AD1AB34102DB0020014670BD7C
:10046000201841EB025170BDC10F80EAE0700844D2
:10047000CA079623002100F0D8B80EB540F23341E8
:1004800002910021CDE900110A460B4600F008F95F
:1004900003B000BD70B5C1F30A5201F0004500245D
:1004A000C1F3130140F2FF3341F480119A4201DAA3
:1004B000002070BD40F233439A42A2F2334203DC83
:1004C0005242FFF72FFE00E090402C43F1D0404213
:1004D00070BD00F0004230F000400AD0C10D01F5BF
:1004E0006071C0F3160042EA0151C208400711438F
:1004F000704700200146704730B5002904DB4FF0FB
:100500000044404264EB0101002B04DB4FF0004447
:10051000524264EB03038B4208BF824230BD0000AD
:1005200030B5002904DB4FF00044404264EB010188
:10053000002B04DB4FF00044524264EB030399426A
:1005400008BF904230BD000030B50B460146002088
:100550002022012409E021FA02F59D4205D303FA85
:1005600002F5491B04FA02F52844151EA2F1010206
:10057000F1DC30BD2DE9F05F0546002092469B4638
:1005800088460646814640241BE0284641464746A9
:100590002246FFF7C7FD53465A46C01A914110D371
:1005A00011461846224600F016F82D1A67EB01088E
:1005B0004F4622460120002100F00DF817EB0009FC
:1005C0004E41201EA4F10104DFDC484631462A4694
:1005D0004346BDE8F09F202A04DB203A00FA02F1EE
:1005E000002070479140C2F1200320FA03F3194321
:1005F00090407047202A06DBCB17203A41FA02F0E0
:1006000043EAE07306E041FA02F3D040C2F120026F
:1006100091400843194670470029A8BF7047401C05
:10062000490008BF20F00100704710B4B0FA80FC08
:1006300000FA0CF050EA010404BF10BC704749B145
:10064000CCF1200421FA04F411FA0CF118BF0121B5
:1006500021430843A3EB0C01CB1D4FEA00614FEA95
:10066000102042BF002010BC704700EBC350104464
:100670000029A4BF10BC7047401C490008BF20F0EF
:10068000010010BC704710B5002B08DA401C41F186
:10069000000192185B411A4301D120F0010010BD06
:1006A0002DE9F04D92469B4611B1B1FA81F202E07C
:1006B000B0FA80F220329046FFF78DFF04460F46D5
:1006C00040EA0A0041EA0B0153465A46084313D058
:1006D000114653EA010019D0C8F140025046FFF715
:1006E00021FD05460E46504659464246FFF773FF28
:1006F000084305D0012004E020463946BDE8F08DCE
:100700000020054346EAE0762C4337430A98630508
:10071000E40AA0EB08000022FD0A44EA47540A302C
:1007200002D500200146E9E7010510196941DDE91C
:10073000084500196941BDE8F04DA4E72DE9F04DE9
:1007400081EA030404F0004B21F0004514464FF009
:10075000000A23F0004150EA050220D054EA0102C9
:100760001DD0C5F30A570246C5F31303C1F31300A6
:10077000C1F30A5640F4801543F48013A7EB060832
:10078000101BD64608F2FD3873EB050002D308F1C2
:10079000010801E092185B41B8F1000F03DA002074
:1007A0000146BDE8F08D00204FF4801106468446D6
:1007B0000EE0171B73EB050705D3121B63EB050354
:1007C00006434CEA010C49084FEA300092185B419D
:1007D00050EA0107EDD152EA030012D082EA040088
:1007E00083EA0501084305D0101BAB4106D2012264
:1007F000002306E000224FF0004302E06FF0010208
:1008000053101AEB06004CEB085110EB0A0041EBB9
:100810000B01BDE8F04DFFF736BFC1F30A52C1F33B
:10082000130140F2FF3341F480119A4202DA0020B2
:100830000146704740F233439A42A2F2334202DC4F
:100840005242FFF76FBCFFF7C6BE0000064C074DD3
:1008500006E0E06840F0010394E807009847103490
:10086000AC42F6D3FFF746FC783400089834000811
:100870002DE9F04D00231A461B1A8A4103DB0020A4
:100880000146BDE8F08DC1F30A52C1F3130141F4F2
:1008900080154FF0000BD10702D100186D41521E98
:1008A0000027044640F2FF11384601EB620A3E463B
:1008B0008046024600204FF48011FFF733FCC21936
:1008C0007141BB1846EB0100B4EB030C75EB000C57
:1008D00004D3E41A65EB000517460E46241908F107
:1008E00001006D4180463428E3DDF91946EB06002E
:1008F000091BA84103D24FF0FF32134601E000224A
:1009000013461BEB070046EB0A51BDE8F04DFFF71D
:10091000BABE000070B5044600688168C943C907C3
:100920001CD1816821F00101816000F085FB054642
:100930000FE000BF00F080FB401B022809D9A06A2D
:1009400040F01000A062E06A40F00100E062012087
:1009500070BD20688068C043C007EBD0002070BD28
:10096000F8B500260446009600688168C943C907A7
:1009700028D0816841F00101816013481349006863
:10098000B0FBF1F000E0401E00900028FBD100F029
:1009900053FB054611E000BF00F04EFB401B022850
:1009A0000BD9A06A40F01000A062E06A40F001009C
:1009B000E06284F824600120F8BD20688068C043AC
:1009C000C007E9D10020F8BD0000002040420F0020
:1009D000FEE77047F8B50024009490F824202546DF
:1009E000012A12D0012280F824204A681F23072AF6
:1009F0000DD20668776B521E02EB820293409F4332
:100A00000B6893401F43776319E00220F8BD066826
:100A10000D2A0AD2376BD21F02EB820293409F430A
:100A20000B6893401F43376309E0F76A0D3A02EB06
:100A3000820293409F430B6893401F43F7620A680A
:100A4000072306680A2A0AD3F7680A3A02EB420229
:100A500093409F438B6893401F43F76008E03769DA
:100A600002EB420293409F438B6893401F433761E0
:100A70000A68102A01D0112A20D1124B02689A422A
:100A800017D193681B0219D4936843F40003936051
:100A90000968102912D10C490C4A0968B1FBF2F11E
:100AA00001EB8101490000E0491E00910029FBD1C2
:100AB00004E0816A41F020018162012480F8245021
:100AC0002046F8BD002401400000002040420F00F5
:100AD0000068C06C704700002DE9F0414FF000073E
:100AE00004003D467ED0A06A002628B9E66284F85C
:100AF0002460204600F07EF82046FFF70BFFA16A35
:100B000001F01001014304D0A06A40F01000A0627F
:100B100068E0A16A21F4885141F00201A162626893
:100B2000E169E3680A4347EA43010A43A1684FF4D5
:100B30008077B94208D0012906D00021D4F814C02A
:100B4000BCF1010F02D00AE03946F7E7F3B1A36A1E
:100B500043F02003A362E36A43F00103E3622368E6
:100B6000D3F804C02CF4694C4CEA010CC3F804C05F
:100B700023689968DFF870C001EA0C01114399609D
:100B8000A168B9420BD0012909D00CE0DFF85CC0A4
:100B9000A3690CEB43330B4343F40061DFE7218A85
:100BA0000D05A5F580152168CB6A23F470032B434E
:100BB000CB62216889680E4B1940914208D1E662E8
:100BC000A16A21F0020141F00101A162BDE8F081BA
:100BD000A06A20F0020040F01000A062E06A40F03D
:100BE0000100E0620120F1E7FDF7E1FF00E0FFFF17
:100BF000FE0E1FFF00B5144B02681448032185B098
:100C00009A420DD1826942F400728261806900F4D7
:100C1000007004902020CDE9000169460C480FE0E7
:100C20000C4B9A420ED1826942F4806282618069E3
:100C300000F4806004900120CDE900016946064877
:100C400000F016F905B000BD00240140001002407C
:100C50000008014000280140000C01402DE9F84344
:100C600000260D460446009600F0E6F9804620680E
:100C70008168C90508D5A06A40F02000A06284F808
:100C800024600120BDE8F8834168C90503D4C06A27
:100C900010F4700F26D0022000F080FA384909685D
:100CA000B1FBF0F72068036936490B424FEA610156
:100CB0004FEAA1121BD1C3684FEA611C13EA0C0F63
:100CC00015D103690B4221D1C06810421ED11420F6
:100CD0001FE0681C06D045B300F0AEF9A0EB080099
:100CE000A84222D8206800688007F2D52AE003696C
:100CF0000B4202D1C168114206D0026922490A4260
:100D000006D1C068084203D1542002E0292000E047
:100D1000FC204743009813E0681C0ED02DB100F072
:100D20008BF9A0EB0800A84207D9A06A40F00400A4
:100D3000A06284F824600320A4E70098401C00907F
:100D4000B842E9D321686FF012000860A06A40F44D
:100D50000070A06220688068C0F3424007280CD170
:100D6000E06850B9A06A20F48070A062A06AC00454
:100D700003D4A06A40F00100A062002082E70000D6
:100D800000000020244992244992240070B50446B2
:100D900090F8240001280DD0012084F8240020467A
:100DA000FFF7DEFD02004FF0000005D084F82400BC
:100DB000104670BD022070BDA16A40F20123994324
:100DC00041F48071A1621F4D23681F49AB4218D1C5
:100DD0000E6816F4702F14D0A66A46F48016A66228
:100DE0000E68760505D5A66A26F4005646F48056A8
:100DF000A662A66AF6040AD5E66A26F00606E66248
:100E000006E0A66A26F48016A6625E68E9E7E0625C
:100E100084F824006FF00200186020688368C3F330
:100E20004243072B05D1A84208D1096811F4702F5D
:100E300004D0816841F480118160B9E7816841F490
:100E4000A001F9E7002801400424014070B50446E0
:100E500000F0F2F80546601C02D004480078044413
:100E600000F0EAF8401BA042FAD370BD0400002055
:100E70002DE9F84FDFF890A100220AF1040B144687
:100E800001274FF00F090BF1040E00BF0B6807FAA2
:100E900004F52B40AB4274D1DFF870C14E68A6EB6D
:100EA0000C0866452BD00DDC032E34D005DC36B3A0
:100EB000012E19D0022E2FD11BE0112E16D0122E8A
:100EC0002AD119E0B8F5881F19D006DCB8F5803FA3
:100ED00015D0B8F5801F1FD111E0B8F5001F0ED056
:100EE000B8F5041F18D10AE0CA6815E0CA68121DD7
:100EF00012E0CA6808320FE0CA680C320CE08A6857
:100F00002AB1012A4FF0080203D0456104E004220F
:100F100002E0056100E00022FF2B01D8064601E057
:100F200000F104064FEA840501D9A5F12005D6F8A1
:100F300000C009FA05F82CEA080C02FA05F54CEA9B
:100F4000050CC6F800C04D68ED0057D5304DAE69B0
:100F500046F00106AE61AD6924F0030605F0010517
:100F600000952C4D06EB050CDCF80850A6074FEA5F
:100F7000167809FA08F6B543274EB04202D100268A
:100F800010E03BE0254EB04201D101260AE0244E9C
:100F9000B04201D1022605E0224EB04201D1032623
:100FA00000E0042606FA08F62E43CCF808604D68E7
:100FB000DAF80060ED03554601D51E4300E09E437C
:100FC0002E604D68DBF80060AD035D4601D51E4321
:100FD00000E09E432E604D68DEF80060ED0275462D
:100FE00001D51E4300E09E432E604D68AD020E4DBC
:100FF0002E6801D51E4300E09E432E60641C102C19
:10100000FFF444AFBDE8F88F000401400000111068
:10101000001002400000014000080140000C0140A7
:1010200000100140001401400C0401400AB10161AC
:1010300070470904FBE70000014880687047000022
:1010400004000020024881680278114481607047E2
:1010500004000020074810B5016841F0100101604C
:10106000032000F089F8002000F006F800F024F8D2
:10107000002010BD0020024070B50D4D04464FF415
:101080007A712878B1FBF0F00A490968B1FBF0F0F9
:1010900000F0F3FB48B9102C07D200222146501E65
:1010A00000F04AF800206C6070BD012070BD0000A7
:1010B00004000020000000201D4808B5816941F0AF
:1010C00001018161806900F001000090032000F0BF
:1010D00053F8002211466FF00B0000F02DF80022AB
:1010E00011466FF00A0000F027F8002211466FF059
:1010F000090000F021F800221146501F00F01CF8F2
:1011000000221146101F00F017F800221146901E11
:1011100000F012F800221146501E00F00DF80548AC
:10112000416821F0E06141F08061416008BD00004C
:101130000010024000000140F0B40E4B1B680C464A
:10114000C3F30223C3F10705042D00D90425191D9B
:10115000072901D2002300E0DB1E012606FA05F173
:10116000491E214099409E40761E16403143F0BCF6
:1011700000F00ABE0CED00E0064900F00702086826
:101180004FF6FF03184040EA0220034A104308606C
:10119000704700000CED00E00000FA0510B529A42E
:1011A00001461DCC86B08DE81D002AA02A4C00689F
:1011B00004900020012923D002293AD010291DD102
:1011C00061682268D20119D5C1F38342C9031DF8B1
:1011D000020009D5616804AAC1F34041515C1F4A6D
:1011E000B2FBF1F1484301E01D49484361684902FF
:1011F00004D440005FF00301B0FBF1F006B010BD75
:10120000226AC2F30121012903D1920701D5C80343
:10121000F4E7022905D1626A920702D549F64040F7
:10122000ECE70329EAD121688903E7D54FF224408E
:10123000E4E700F04DF96168C1F38131491C4900D0
:10124000DAE7000002030405060708090A0B0C0D83
:101250000E0F1010010200000010024000127A0070
:1012600000093D002DE9F84305460078354CC007DC
:1012700054D0E0690026C00008D4E06940F08050F6
:10128000E061E069012600F0805000902E4801687E
:10129000C90512D40168804641F480710160FFF7EE
:1012A000CBFE074605E000BFFFF7C6FEC01B642863
:1012B00023D8D8F80000C005F6D5206A10F4407095
:1012C00021D0A98801F4407181421CD0206A1F49B5
:1012D000012220F440700A6000220A602062C007E8
:1012E00011D0FFF7A9FE074641F2883808E000BF99
:1012F000FFF7A2FEC11B414502D90320BDE8F883D8
:10130000206A8007F4D5206A696820F44070084399
:1013100020621EB1E06920F08050E06128788007EB
:1013200005D56068A96820F44040084360602878CB
:10133000C00605D56068E96820F480000843606055
:101340000020DBE7001002400070004040044242F1
:101350002DE9F047DFF83C8105460E46D8F800003D
:1013600000F00700B0420CD2D8F8001021F00701BD
:101370003143C8F80010D8F8000000F00700B04270
:1013800063D12878444C800705D56068A96820F0AF
:10139000F000084360602878C00745D068680128DD
:1013A00016D02168022816D0890700294DDA616815
:1013B00021F0030101436160FFF73EFE69680746C3
:1013C00041F2883001290FD00229814619D027E047
:1013D00021688903E9E78901E7E700BFFFF72CFEF1
:1013E000C11B494501D918E081466068C0F38100FE
:1013F0000128F3D118E000BFFFF71EFEC11B4945CD
:101400000BD86068C0F381000228F5D10CE000BF62
:10141000FFF712FEC11B494502D90320BDE8F08742
:10142000606810F00C0FF3D1D8F80010404601F0BE
:101430000701B1420BD9016821F007013143016076
:10144000006800F00700B04201D00120E6E72878EC
:10145000400705D56068E96820F4E06008436060F3
:101460002878000706D56068296920F4605040EAB2
:10147000C100606000F03CF86168084AC1F30311E4
:10148000515CC840064908600020FFF7F5FD0020C8
:10149000C4E7000000200240001002400C340008A5
:1014A0000000002001480068704700000000002094
:1014B0000448054900684968044AC1F30221515CA7
:1014C000C840704700000020001002401C34000893
:1014D0000448054900684968044AC1F3C221515CC7
:1014E000C840704700000020001002401C34000873
:1014F00012A185B00FC98DE80F0014A0144A00682E
:1015000004905168134801F00C03042B10D0082BF1
:101510000ED1C1F38343C9031DF803000AD55168F6
:1015200004AAC1F34041515C0A4A5043B0FBF1F0B8
:1015300005B0704708494843FAE700000203040574
:10154000060708090A0B0C0D0E0F1010010200000F
:101550000010024000127A0000093D002DE9F84F0A
:1015600004460078B94DC00748D06868C0F38100D0
:10157000012807D06868C0F38100022809D1686893
:10158000C00306D52868800338D5606800286FD06E
:1015900034E06068B0F5803F0BD010B1B0F5A02FFB
:1015A00011D0286820F480302860286820F480203A
:1015B00002E0286840F480302860606888B1FFF756
:1015C0003BFD064609E0286840F480202860F0E7EB
:1015D000FFF732FD801B642875D828688003F7D593
:1015E0000CE0FFF729FD064605E000BFFFF724FDEC
:1015F000801B6428F0D828688003F7D42078944EA4
:1016000080074FF001094FF000083BD5686810F0E3
:101610000C0F07D06868C0F38100022809D1686800
:10162000C00306D42868800714D5206901281FD17B
:1016300010E02069B0B1C6F80090FFF7FDFC074646
:1016400005E000BFFFF7F8FCC01B0228C4D82868DB
:101650008007F7D52868616920F0F80040EAC100EA
:1016600028600FE0C6F80080FFF7E6FC074606E0BA
:10167000E9E000BFFFF7E0FCC01B022823D8286880
:101680008007F7D4207800072CD57248A169D9B11A
:10169000C0F80090FFF7D0FC074604E0FFF7CCFC51
:1016A000C01B02280FD8686A8007F7D56A484FF434
:1016B000FA510068B0FBF1F0009000BF0098411EA5
:1016C0000091FAD20EE080E0C0F80080FFF7B4FC91
:1016D000074604E0FFF7B0FCC01B022875D8686A13
:1016E0008007F7D42078400760D5E8690027C0005C
:1016F00008D4E86940F08050E861E869012700F00B
:101700008050009055480168C90513D4016883468C
:1017100041F480710160FFF78FFC824606E000BF54
:10172000FFF78AFCA0EB0A0064284ED8DBF8000023
:10173000C005F5D5E06801280AD008B1052813D006
:10174000286A20F001002862286A20F0040002E0E4
:10175000286A40F001002862E06841F2883B98B1B5
:10176000FFF76AFC82460BE0286A40F0040028621A
:10177000EEE700BFFFF760FCA0EB0A0159455AD81D
:10178000286A8007F6D50CE0FFF756FC824605E094
:10179000FFF752FCA0EB0A0159454CD8286A800794
:1017A000F6D41FB1E86920F08050E861E06988B3A1
:1017B0006968C1F38101022945D00228C6F860801A
:1017C00004D0FFF739FC044638E034E0FFF734FC7E
:1017D000074604E0FFF730FCC01B02282BD828681E
:1017E0008001F7D4206AB0F5803F05D16868A16810
:1017F00020F4003008436860D4E9080108436968B0
:1018000021F4741108436860C6F86090FFF714FC77
:10181000044606E015E000BFFFF70EFC001B02289F
:1018200009D828688001F7D50BE000BFFFF704FC5A
:10183000001B022802D90320BDE8F88F2868800128
:10184000F4D40020F8E70120F6E700000010024081
:10185000000042428004424200000020007000402C
:101860004FF0E0210428086903D020F0040008614B
:10187000704740F00400FAE7704710B5401EB0F121
:10188000807F01D3012010BD4FF0E02460610F2163
:10189000601700F079FA0020A06107202061002085
:1018A00010BD10B5FFF7E8FF10BD30B590F83C2033
:1018B000012A20D0012280F83C20022380F83D300C
:1018C00003685C6824F070045C6003685C680D6801
:1018D0002C435C6003689C6824F080049C6003686F
:1018E0009C6849680C439C6080F83D20002180F88A
:1018F0003C10084630BD022030BD00001FB5006816
:10190000B0F1804F08D10320009002200190039095
:1019100069460248FFF7ACFA1FBD0000000801400D
:1019200070B5044690F83C000D4601280DD0012604
:1019300084F83C60022084F83D0042B1042A18D0AB
:10194000082A2AD00C2A4DD139E0022070BD206827
:1019500000F0D6FA2068816941F0080181612068B1
:10196000816921F004018161206881692A6911433C
:1019700011E0206800F0ECFA2068816941F4006110
:1019800081612068816921F48061816120688169B9
:101990002A6941EA0221816124E0206800F004FB09
:1019A0002068C16941F00801C1612068C16921F066
:1019B0000401C1612068C1692A69114311E02068EE
:1019C00000F01EFB2068C16941F40061C16120681C
:1019D000C16921F48061C1612068C1692A6941EA55
:1019E0000221C16184F83D60002084F83C0070BD94
:1019F00010B5040003D094F83D0010B107E00120B9
:101A000010BD002084F83C00204600F00DF80220B4
:101A100084F83D00211D206800F030FA012084F890
:101A20003D00002010BD000008B50068B0F1804FF7
:101A300008D10548C16941F00101C161C06900F0E8
:101A40000100009008BD00000010024010B50446DF
:101A50000068012200F048FA07492068884203D153
:101A6000416C41F4004141642068016841F001018A
:101A70000160002010BD0000002C014070B5040082
:101A800004D094F83900002510B106E0012070BDA3
:101A900084F83850204600F023F8242084F83900D8
:101AA0002068C16821F40051C160204600F0CAFAE4
:101AB0002068016921F4904101612068416921F0A9
:101AC0002A0141612068C16841F40051C160E563A9
:101AD000202084F8390084F83A00002070BD00000E
:101AE00010B50068114986B088421DD1104881693F
:101AF00041F48041816180690E4C00F48040049083
:101B00004FF400700090022001900320039069467A
:101B10002046FFF7ADF900212015CDE90001029123
:101B200069462046FFF7A4F906B010BD0038014011
:101B300000100240000801402DE9F843044690F8E7
:101B400039001F4616460D46202850D1A5B19EB13A
:101B500094F8380001284AD0012084F838004FF06A
:101B60000008C4F83C80212084F83900FFF764FAAB
:101B7000A6848146E68426E00120BDE8F883E08C57
:101B8000401EE084A0684B46B0F5805F4FF0000235
:101B90004FF080012046009703D000F00BFBE8B91E
:101BA0000DE000F007FBC8B928882168C0F30800E1
:101BB0004860206908B16D1C05E0AD1C03E0216898
:101BC00015F8010B4860E08C0028D8D14B46002264
:101BD00040212046009700F0EDFA08B10320CCE741
:101BE000202084F8390084F838800020C5E70220DE
:101BF000C3E7FEE73EB51248002410498460C46084
:101C000044610160012505614FF460214460C161B8
:101C1000FEF762FF18B184210A4800F0FEFA0520A1
:101C2000CDE90005694602940548FEF7D3FE002879
:101C300003D08D21034800F0F0FA3EBD002401409E
:101C400098000020981C00083EB512480024104956
:101C50008460C46044610160012505614FF4602126
:101C60004460C161FEF738FF18B1A2210AA000F05C
:101C7000D4FA0820CDE90005694602940548FEF72C
:101C8000A9FE002803D0AB2103A000F0C6FA3EBD98
:101C900000280140C80000202E2E5C5372635C6255
:101CA0006C616E63655F6164632E6300184810B5F4
:101CB000816986B041F020018161816901F02001D4
:101CC0000491816941F004018161816901F004019D
:101CD0000491816941F00801816180690D4C00F037
:101CE00008000490002228212046FFF79FF90122D6
:101CF00050212046FFF79AF97820009001200190AA
:101D00000320039069462046FFF7B2F806B010BDE5
:101D100000100240000C014030B5194889B04FF066
:101D2000804102C040F2CF21002440F2E73532C0AA
:101D300040F8104984611248FFF75AFE00B1FEE7EF
:101D4000079407A90E480894FFF7AFFD00B1FEE71E
:101D500060200090CDE901540022694608480494AF
:101D6000FFF7DEFD00B1FEE7042269460448FFF7F5
:101D7000D7FD00B1FEE70248FFF7C0FD09B030BD56
:101D800058000020FEE770470907090E002806DA10
:101D900000F00F0000F1E02080F8141D704700F102
:101DA000E02080F8001470477047704710B5FFF7C7
:101DB00049F9BDE81040FFF774BD30B593B001217B
:101DC0000804CDE900100025029502240491CDE914
:101DD00007404FF4E01009906846FFF7BFFB00B1E1
:101DE000FEE70AA90F2081E831004FF48060CDE9B9
:101DF0000D0502210AA8FFF7ABFA00B1FEE74FF488
:101E0000004011900F940FA8FFF72CFA00B1FEE7E5
:101E1000FFF748FB4FF47A71B0FBF1F0FFF72DFDAF
:101E20000420FFF71DFD00221146501EFFF784F924
:101E300013B030BD0D48016841F0010101604168F7
:101E40000B4A1140416001680A4A11400160016873
:101E500021F480210160416821F4FE0141604FF4CA
:101E60001F0181600449C0030860704700100240F0
:101E70000000FFF8FFFFF6FE08ED00E0F0B5026895
:101E8000164B174C174D4FF08047984205D0B8427B
:101E900003D0A04201D0A84203D122F070064A68C4
:101EA0003243984205D0B84203D0A04201D0A842A4
:101EB00003D122F44074CA68224322F080044A69A4
:101EC000224302608A68C2620A688262984201D133
:101ED0000969016301214161F0BD0000002C01404E
:101EE000000400400008004010B50123046A8B4044
:101EF0009C430462036A8A401343036210BD0000DE
:101F000030B5026A22F001020262026A4368846903
:101F100024F073050C682C4322F002058A682A43DA
:101F20000A4DA8420BD122F00805CA6823F4407379
:101F30002A434D6922F004021D438B692B43436001
:101F4000846149684163026230BD0000002C014099
:101F500030B5026A22F010020262026A43688469A4
:101F60000D6824F4E64444EA05248D6822F020023A
:101F700042EA05120B4DA8420ED1CD6822F0800234
:101F800042EA05124D6923F4406343EA85038D69F3
:101F900022F0400243EA850343608461496881631B
:101FA000026230BD002C014030B5026A22F480721A
:101FB0000262036A4268C46923F4007324F0730563
:101FC0000C682C438D6843EA05230C4DA8420ED1C2
:101FD000CD6823F4006343EA05234D6922F440529F
:101FE00042EA05128D6923F4806342EA05124260D9
:101FF000C4614968C163036230BD0000002C014028
:1020000030B5026A22F480520262046A4268C369EF
:102010000D6823F4E64343EA05238D6824F4005455
:1020200044EA0534064DA84204D14D6922F48042A9
:1020300042EA85124260C36149680164046230BDAE
:10204000002C01402DE9F041044600680169E26876
:1020500021F44051114301612169A068084361697D
:1020600008432168CA6841F20C639A430243CA607C
:1020700020684169A26921F44071114341614C49D2
:1020800020686425322688423CD1FFF721FA00EB14
:10209000C00101EB001061688900B0FBF1F7FFF7A8
:1020A00017FA00EBC00101EB00106168B04689002F
:1020B000B0FBF1F0B0FBF5F06FF01801484307EB0F
:1020C000800106EB0110B0FBF5F000F0F006FFF721
:1020D000FFF900EBC00101EB001061688900B0FB63
:1020E000F1F0B0FBF5F006EB0016FFF7F1F900EBAD
:1020F000C00101EB001061688900B0FBF1F7FFF748
:10210000E7F93BE0FFF7D4F900EBC00101EB001069
:1021100061688900B0FBF1F7FFF7CAF900EBC00175
:1021200001EB00106168B0468900B0FBF1F0B0FB34
:10213000F5F06FF01801484307EB800106EB011042
:10214000B0FBF5F000F0F006FFF7B2F900EBC001CC
:1021500001EB001061688900B0FBF1F0B0FBF5F015
:1021600006EB0016FFF7A4F900EBC00101EB00102D
:1021700061688900B0FBF1F7FFF79AF900EBC00145
:1021800001EB001061688900B0FBF1F0B0FBF5F0E5
:102190006FF01801484307EB800108EB0110B0FB1A
:1021A000F5F0216800F00F0030448860BDE8F08150
:1021B000003801402DE9F041984617460E46044686
:1021C000069D1DE0681C1BD02DB1FEF735FFA0EB6E
:1021D0000800A84214D92068C16821F4D071C160F8
:1021E0002068416921F001014161202084F8390013
:1021F00084F83A00002084F838000320BDE8F0811C
:102200002068006836EA000004D00020B842D9D027
:102210000020F3E70120F9E7FEE7FEE70FB4054BE6
:1022200010B503A9044A029800F042F910BC5DF809
:1022300014FB0000FD30000810000020490050EAA7
:10224000C12018BF04204A0D18BF40F0010040F221
:10225000FF72B2EB515F08BF40F00200012808BFD7
:10226000052070472DE9F0414F1E00EBC7010446E1
:10227000D1E9000115461E4637F006020DD02A4668
:102280003346FEF768F87F1E04EBC703D3E900234B
:10229000FDF7BAFF37F00602F1D1022F25D0042F47
:1022A00013D0062F18BFBDE8F0812A463346FEF74B
:1022B00052F8D4E90A23FDF7A7FF2A463346FEF772
:1022C0004AF8D4E90823FDF79FFF2A463346FEF774
:1022D00042F8D4E90623FDF797FF2A463346FEF776
:1022E0003AF8D4E90423FDF78FFF2A463346FEF778
:1022F00032F8D4E90223FDF787FF2A463346FEF77A
:102300002AF8D4E90023BDE8F041FDF77DBF0000C5
:10231000024A00201107FEF790B8000001FDFFFF00
:1023200002E008C8121F08C1002AFAD1704770479E
:10233000002001E001C1121F002AFBD170470000FC
:102340000149086070470000140000202DE9FF5F7C
:10235000DDE90220010DDDF838B0024318D044F663
:102360001050A1F2FF3141430D140F98012820D0E5
:10237000A5EB0B00401C5FEA000A4FF00004474E3B
:10238000DFF81C91A046504616D5CAF1000728E098
:102390000F98012443A2012808D0002100980F9B28
:1023A000C0E90021C0E90243BDE8FF9F6FEA0B01CD
:1023B000F4E7CBF10000DEE7074612E0F80707D0AC
:1023C0002246334640464946FDF7C5FF80468946CA
:1023D0002246334610461946FDF7BDFF04460E4619
:1023E0007F10002FEAD1DDE90201BAF1000F424669
:1023F0004B4602DAFDF7AFFF01E0FEF79FF9044616
:102400000E460022284BFEF78BF803D84FF0FF3022
:10241000014607E00022254B20463146FDF7F4FE39
:10242000FEF7FBF9102409E0002C0ADB0A22002346
:10243000FEF7A0F8019B30321A55641E50EA0102E3
:10244000F2D1641C019AC4F1110314440F9A012AB9
:1024500003D0012208430DD10AE0084304D0002034
:102460004FF0110B0F9080E7A3EB0B056D1E0DE0F5
:102470005B4504DD4FF0000205F1010504E003DADD
:102480004FF00002A5F10105002AECD000980F9949
:10249000C0E90231C0E9004586E7000000002440A1
:1024A0000000F03F300000000000F0430000E03F7B
:1024B0002DE9FF4F95B09B468946064600250FE261
:1024C000252877D100242746F84A0121059400E009
:1024D000044316F8013F203B01FA03F01042F7D104
:1024E00030782A2811D06FF02F033078A0F1300215
:1024F000092A16D8059A44F0020402EB820203EB83
:1025000042021044761C0590EFE759F8042B05921F
:10251000002A03DA504244F40054059044F00204C7
:10252000761C30782E2816D116F8010F44F00404DA
:102530002A280DD06FF02F023078A0F13003092B3C
:1025400009D807EB870302EB4303C718761CF3E7B0
:1025500059F8047B761C30786C280FD006DC4C28A8
:1025600017D068280DD06A2814D104E0742810D040
:102570007A280FD10DE044F400140AE044F48014EA
:1025800001E044F440147278824202D104F58014D0
:10259000761C761C307866280BD013DC582877D050
:1025A00009DC002875D04528F6D04628F4D0472805
:1025B0001AD19DE118E0632835D0642879D06528C8
:1025C00012D195E1702873D008DC6728F1D0692812
:1025D0006FD06E280DD06F2806D1B5E073282CD0AF
:1025E000752875D0782874D05A46179990476D1C75
:1025F00075E1C4F30250022809D003280DD0D9F8A0
:10260000001004280DD00D6009F1040967E1D9F824
:102610000010EA17C1E90052F6E7D9F800100D8062
:10262000F2E70D70F0E719F8041B8DF80010002098
:102630008DF80100EA46012003E059F804AB4FF0A1
:10264000FF3061074FF0000102D40DE008F10101F5
:102650008846B9420FDA8045F8DB1AF808100029DD
:10266000F4D108E008F1010188468142FADB1AF84A
:1026700008100029F6D105985B46A0EB0807214613
:102680003846179A00F094FA284400EB080507E052
:102690004DE029E10DE01AF8010B5A4617999047D1
:1026A000B8F10108F7D25B4621463846179A13E184
:1026B00042E00A220092C4F302524FF0000A022ABA
:1026C00008D059F804CB032A4FEAEC710AD00DE088
:1026D00029E02AE009F1070121F00702F2E802C12E
:1026E000914609E00FFA8CFC4FEAEC71042A03D101
:1026F0004FFA8CFC4FEAEC71002907DA0A460021F8
:10270000DCF1000C61EB02012D2202E0220504D570
:102710002B228DF80420012203E0E20701D02022C1
:10272000F7E7904659E00A2102E010220DE010215F
:102730004FF0000A00910BE010224FF0000A44F025
:1027400004040827009203E008224FF0000A0092D8
:10275000C4F30252022A05D059F804CB0021032AFF
:1027600008D009E009F1070121F00702F2E802C1EF
:10277000914605E01FFA8CFC042A01D10CF0FF0CF5
:102780004FF00008220728D5702806D0009B83F060
:10279000100353EA0A0305D00EE040228DF804200E
:1027A000012208E05CEA010206D030228DF8042004
:1027B0008DF8050002229046009B83F0080353EA3F
:1027C0000A030AD15CEA010201D1620705D5302271
:1027D0008DF804204FF001087F1E582804D034A043
:1027E00003900EA802900DE036A0F9E7534660462C
:1027F000009AFDF7BFFE84460398825C0298401E53
:10280000029002705CEA0100F0D1029806A9081A51
:1028100000F1200A600702D524F4803400E001278B
:10282000574502DDA7EB0A0000E0002000EB0A019B
:10283000009005984144401A0590E00306D45B4699
:102840002146179A059800F0B3F90544002706E0E1
:1028500001A85A46C05D179990476D1C7F1C4745DB
:10286000F6DBE0030CD55B462146179A059800F08D
:102870009FF9054404E030205A46179990476D1C93
:102880000099481E00900029F5DC08E002980299A2
:102890005A460078491C0291179990476D1CBAF16D
:1028A0000001AAF1010AF1DC65E10000092801003C
:1028B00030313233343536373839616263646566B6
:1028C0000000000030313233343536373839414278
:1028D000434445460000000000F058F90544761CCA
:1028E000307800287FF4ECAD19B02846BDE8F08FB1
:1028F000620700D4062709F1070222F0070CFCE862
:102900000223E14603F000485FEA080C02D00FF210
:10291000702C0DE05FEA045C02D50FF2682C07E032
:102920005FEAC47C02D00FF2602C01E0AFF2700CC1
:102930004FF0FF3823F00043CDF850C065280CD08D
:1029400006DC452809D046281DD047283DD13DE06A
:10295000662818D067287ED138E00021112F01DBCE
:10296000112000E0781CCDE9000106A90EA8FFF7B0
:10297000EDFCDDE90F010E9A03910021009207F1B1
:10298000010A04914DE04FF000400097CDE901109D
:1029900006A90EA8FFF7DAFCDDE90F0203920E9BF1
:1029A00011990022DDF80CA00093049211B9791C52
:1029B00000EB010AB7EB0A0004D4C0F1FF3007F1C5
:1029C000010A0490AAEB0700019044E0012F00DA0D
:1029D00001270021112F01DD112000E03846CDE94B
:1029E000000106A90EA8FFF7B1FCDDE90F010E9A60
:1029F0000391002104910092BA4621070CD4039957
:102A0000514500DA8A46BAF1010F05DD009AAAF1B4
:102A10000101515C302908D0B84202DA10F1040FEC
:102A200006DA0121CDE9011015E0AAF10101E9E77B
:102A3000002805DC049901440491AAEB000102E09E
:102A4000411C514500DD8A460499401A401C019002
:102A50004FF000400290200704D40198504501DB5C
:102A6000CDF8048000208DF84F0002980DF14F073B
:102A7000B0F1004F25D02B200E9002984FF00208A5
:102A800000280CDA404202902D200E9007E00A2127
:102A90000298FDF759FD3031029007F8011DB8F199
:102AA0000001A8F10108F2DC02980028EFD1791E9C
:102AB0000E980870307800F0200040F0450007F8CC
:102AC000020D12A8C01B00F107081498007800B18D
:102AD000012000EB0A01019801EBE07105984144E7
:102AE000401A401E0590E00306D45B462146179A23
:102AF000059800F05DF805441498007818B15A461E
:102B0000179990476D1CE00324D55B462146179A20
:102B1000059800F04DF805441CE00498002807DBF8
:102B2000DDE90301884203DD0098405C179901E06C
:102B3000179930205A469047049805F10105401C2A
:102B400004900198401E019004D12E205A461799F6
:102B500090476D1CBAF10001AAF1010ADDDC05E025
:102B600017F8010B5A46179990476D1CB8F10001F0
:102B7000A8F10108F4DC5B462146179A0598ABE6FC
:102B80002D0000002B000000200000002DE9F04186
:102B9000044600251E461746880404D405E039463D
:102BA0002020B0476D1C641EF9D52846BDE8F08191
:102BB0002DE9F041044600251E469046C80301D584
:102BC000302700E02027880404D505E04146384638
:102BD000B0476D1C641EF9D52846BDE8F08110B5DC
:102BE000FFF708F8BDE81040FFF72EB82DE9F34FC6
:102BF00085B000200390029002A903A800F08AFA91
:102C00000398FDF73AFC4FF066324E4BFDF7A3FBFD
:102C10004D4A4E4BFDF7F8FADFF834A10022534637
:102C2000FDF799FBFDF736FCFDF71EFCDFF824B13C
:102C30005946FDF7ABFAFDF74CFC04460D464FF044
:102C4000FF32FDF7FAFB444A444BFDF77EFB3E4A58
:102C50003E4BFDF7D9FA0022414BFDF77CFBFDF717
:102C600019FCFDF701FC3F49FDF790FAFDF731FC37
:102C70008046894600F0B2F83B4A3C4BFDF76BFBBF
:102C800006460F4622462B4639A0CDE90089FFF7BC
:102C9000C5FA32463B463FA0FFF7C0FA0298FDF75F
:102CA000ECFB4FF06632274BFDF755FB264A274BCE
:102CB000FDF7AAFA00225346FDF74DFBFDF7EAFBAC
:102CC000FDF7D2FB5946FDF761FAFDF702FC82469B
:102CD0008B464FF0FF32FDF7B0FB1F4A1F4BFDF74D
:102CE00034FB194A194BFDF78FFA00221C4BFDF7F4
:102CF00032FBFDF7CFFBFDF7B7FB1A49FDF746FAAC
:102D0000FDF7E7FB8046894600F068F8164A174B46
:102D1000FDF721FB04460D4652465B4621A0CDE956
:102D20000089FFF77BFA22462B4627A0FFF776FAA9
:102D30000599C1E900670699C1E9004507B0BDE8FA
:102D4000F08F000066664A3FFCA9F1D24D62403F19
:102D5000000059400000C8429A9999999999F33F07
:102D600000408F4000007A44E79AD56194A94C4016
:102D700074656D705F766F6C745F31203D20256CDB
:102D80006620206D69645F73696E203D20256C6646
:102D90000D0A0000582D646567726565203D202589
:102DA000660D0A0074656D705F766F6C745F32201B
:102DB0003D20256C6620206D69645F73696E203D3F
:102DC00020256C660D0A0000592D646567726565E3
:102DD000203D205B256C665D0D0A00002DE9F04D5D
:102DE000904F21F0004A86B005460C46BA4530DBCC
:102DF000AAEB070028430CD08B48824501DC1CD18C
:102E0000DDB106B02846BDE8F04D4FF00102FDF7F8
:102E100014BB864A864B2846FDF79DFA07460E46A8
:102E2000844A854B28462146FDF795FA06B03A4676
:102E30003346BDE8F04DFDF7E7B90120FFF780FA12
:102E400006B00022BDE8F04D134610461146FDF7CE
:102E500075BC7A48824542DABAF1795F0BDA2846C6
:102E6000FFF7ECF9042808BFFFF752FA284606B02E
:102E70002146BDE8F08D2A460B461046FDF76BFA59
:102E8000834602466E480E460B4606217844FFF7FD
:102E9000E9F95A463346FDF75EFA804669488A46A4
:102EA0005A46334604217844FFF7DCF95A46334644
:102EB000FDF751FA00223B46FDF7A6F902460B4604
:102EC00040465146FDF73AFC2A462346FDF743FAB1
:102ED00006B02A462346BDE8F04DFDF795B92846D1
:102EE00024F0004100223D463B46FDF731FA4FF009
:102EF000FF32FDF7A2FA0646024653480F460B463C
:102F000006217844FFF7AEF932463B46FDF723FA37
:102F1000CDE900014D4832463B4604217844FFF795
:102F2000A1F932463B46FDF716FA00222B46FDF783
:102F30006BF9834602913046394600F041FA8046EB
:102F400043480D46504517DCDDE900015A46029B17
:102F5000FDF7F4FB42462B46FDF7FDF942462B46B2
:102F6000FDF752F90122FDF768FA304A304BFDF7C0
:102F7000ECF9304A304B4CE04FF0000A52460B4619
:102F80004046FDF741F9CDE9031052462B46104665
:102F90001946FDF7E0F932463B46FDF7D9F9DDE980
:102FA0000332FDF7CBFB06460F46DDE900015A462A
:102FB000029BFDF7C3FB8346009101223046394650
:102FC000FDF73BFA194A1A4BFDF7C2F906460F46C0
:102FD000012240462946FDF730FA5A46009BFDF78C
:102FE000BAF932463B46FDF7B0F907460E460122D4
:102FF00050462946FDF721FA0E4DDFF858802A4643
:103000004346FDF7A5F93A463346FDF7A1F92A46AE
:103010004346FDF79DF9002CD8BF81F0004106B072
:10302000BDE8F08D0000F03F0000F07F075C143336
:1030300026A6913C182D4454FB21F93F0000E03FA7
:1030400098050000AE0500002205000038050000CC
:103050003333EF3FFB21E93F2DE9F34F95B00746AE
:1030600050216846FDF787F8002634463546502241
:1030700039466846FDF766F8DDE9000182468B4671
:1030800081468846684600EBC6075046D7E90023CC
:103090005946FDF731FA02D2D7E900A18B46D7E9AC
:1030A000002348464146FDF73BFA02D2D7E900919A
:1030B0008846761C0A2EE5D300266F4607EBC6002D
:1030C0002946D0E900232046FDF79EF8761C0446E9
:1030D0000D460A2EF2D352465B46FDF736F94A46B4
:1030E0004346FDF732F96FF00202FDF7A6F9169A92
:1030F000C2E9000117B0BDE8F08F000013B54FF62C
:10310000FF73012269460248FEF716FD00981CBDB8
:10311000180000202DE9F0418AB00D460646002433
:1031200014216846FDF727F8142105A8FDF723F8B8
:103130006F460DF114081B48FDF728FE1948303082
:10314000FDF724FE32211748FDF788FD154832218E
:103150003030FDF783FD1348FDF7BAFC47F8240033
:1031600010483030FDF7B4FC48F824000A20FDF781
:103170006DFE641C052CDED30521684600F012F9B3
:103180003060052105A800F00DF9286006A0FFF7C2
:1031900045F82A6809A03168FFF740F80AB0BDE891
:1031A000F081000098000020546865204176657227
:1031B000616765204144433A0D0A00004144435F82
:1031C00031287829203D2025642C204144435F315B
:1031D000287929203D2025640D0A0000B4B0FDF7B0
:1031E00039FFFEF7EAFDFEF761FDFEF795FD5C484D
:1031F0005A490C2201604FF4E131416000218160A5
:10320000C160C0E904128161C161FEF737FC00B101
:10321000FEE7DFF850810122102144464046FDF7C9
:1032200005FF012240212046FDF700FF4C48002108
:103230004030FEF70BFC4A4804214030FEF706FC04
:10324000FFF7CDFC0020CDE93000CDE93200CDE91B
:103250002A00CDE92C00502102A8FCF78CFF502158
:1032600016A8FCF788FFDFF80091002502AE16AF24
:103270000020CDE92A00CDE92C0004460020CDE94C
:103280003000CDE9320032A930A8FFF7AFFCDDE90C
:10329000300106EBC402C2E9000107EBC402DDE91C
:1032A0003201641CC2E900010A2CE7D32AA902A852
:1032B000FFF7D2FE2CA916A8FFF7CEFE2BA0FEF733
:1032C000ADFFDDE92C01DDE92A23CDE900012FA0C6
:1032D000FEF7A4FF35BBDDE92A0100221346FDF706
:1032E0001FF901D2012200E0002208214046FDF72B
:1032F0009DFEDDE92C0100221346FDF711F901D2F4
:10330000012200E0002220214046FDF78FFE00222E
:10331000102144464046FDF789FE00224021204608
:10332000FDF784FEDDE92A0100224C464B46FDF7FD
:10333000E3F804D8012210214046FDF777FEDDE9CD
:103340002C0100222346FDF7D7F804D801224021A2
:103350004046FDF76BFE6D1C8AE700000038014017
:1033600018000020000C01400000D03F4578747226
:10337000656D6520646174612063616C63756C6167
:1033800074656420646F776E3A000000583D5B25D9
:103390002E326C665D0920593D5B252E326C665DD0
:1033A0000D0A000010B50022134603E050F8224039
:1033B000521C23448A42F9D30520B3FBF0F010BD20
:1033C0002DE9F04106460F46FDF752FA04000D467E
:1033D00018BF0120284320F00040C0F17F6000F1B9
:1033E000E040C00F0ED0301C18BF0120384320F041
:1033F0000040C0F17F6000F1E040C00F04BF012039
:10340000FEF79EFF20462946BDE8F081000000003F
:103410000000000001020304060708090000000084
:103420000102030400000000555555555555C53F90
:103430007D6FEB0312D6D4BF5544880E55C1C93FEA
:103440003B8F68B52882A4BF88B20175E0EF493F81
:1034500009F7FD0DE13D023F4B2D8A1C273A03C0C1
:10346000C88A599CE52A004059018D1B6C06E6BFAD
:1034700082922EB1C5B8B33F9834000800000020F6
:103480001800000020230008B034000818000020B5
:10349000E00400003023000800A24A0401000000FC
:1034A000100000000000000000000000000000000C
:04000005080000ED02
:00000001FF
